:020000040800F2
:10000000305100205D02000897420008393A00088C
:1000100095420008CD0F00087F4C0008000000004A
:100020000000000000000000000000009D0100082A
:10003000C519000800000000F90100081945000872
:1000400077020008770200087702000877020008AC
:10005000770200087702000877020008770200089C
:1000600077020008770200087702000835160008BA
:10007000770200084116000877020008770200089E
:100080004D16000877020008770200087702000882
:10009000F90F0008770200087702000877020008CD
:1000A000770200087702000877020008770200084C
:1000B000E945000877020008770200087702000887
:1000C000770200087702000877020008770200082C
:1000D00077020008494B0008994B00087702000896
:1000E000770200087702000877020008770200080C
:1000F00077020008770200087702000877020008FC
:1001000077020008770200087702000877020008EB
:10011000C9480008E1480008770200087702000893
:1001200077020008770200085916000877020008D5
:1001300077020008770200087702000877020008BB
:100140009110000877020008770200087702000883
:10015000770200087702000877020008770200089B
:10016000770200087702000877020008770200088B
:1001700077020008770200087702000800000000FC
:100180007702000877020008DFF80CD000F038FB97
:100190000048004789770008305100202C4B19682F
:1001A0000868B0E8F04F80F30988BFF36F8F4FF015
:1001B000000080F3118870470000000008480068C4
:1001C000006880F308884FF0000080F3148862B65E
:1001D00061B6BFF34F8FBFF36F8F00DF00BF00BF6B
:1001E00008ED00E0DFF80C00016841F470010160E7
:1001F000704700BF88ED00E0EFF30980BFF36F8F19
:10020000134B1A681EF0100F08BF20ED108A20E96A
:10021000F04F106009B44FF0500080F31188BFF325
:100220004F8FBFF36F8F0AF051F84FF0000080F34B
:10023000118809BC19680868B0E8F04F1EF0100F6B
:1002400008BFB0EC108A80F30988BFF36F8F704746
:10025000BC040020EFF3058070470000064880478B
:1002600006480047FEE7FEE7FEE7FEE7FEE7FEE79B
:10027000FEE7FEE7FEE7FEE7CD450008890100083E
:100280002DE9F05F0546002092469B4688460646CB
:10029000814640241BE0284641464746224600F05E
:1002A000F4F853465A46C01A914110D311461846E5
:1002B000224600F0DBF82D1A67EB01084F46224674
:1002C0000120002100F0D2F817EB00094E41201E5A
:1002D000A4F10104DFDC484631462A464346BDE826
:1002E000F09F40EA01039B0703D009E008C9121FF1
:1002F00008C0042AFAD203E011F8013B00F8013BE0
:10030000521EF9D27047D2B201E000F8012B491E0B
:10031000FBD270470022F6E710B513460A460446A2
:100320001946FFF7F0FF204610BD2DE9FE4F81EA88
:10033000030404F0004421F0004100944FF0000B4E
:1003400023F0004350EA01045ED052EA03045BD07C
:10035000C3F30A54C1F30A552C44A4F2F3340194B4
:10036000A0FB0254C1F3130141F48011C3F3130342
:1003700043F4801301FB024400FB034E840A970AF6
:1003800044EA815447EA8357A4FB076802958D0A23
:1003900005FB07854FEA932C04FB0C542705029DAF
:1003A0004FEA065847EA1637B5EB08056EEB070C1F
:1003B000870E920E47EA811742EA8312A7FB0201D9
:1003C000B6EB0B0164EB00042B0D43EA0C335E1813
:1003D00044EB1C50DA465146E7FB0201C5F3130417
:1003E0004FEA0B3343EA14534FEA0432019C43EAC9
:1003F0000603A4F10C040294009CCDE900B400F0C3
:100400009AF803B0BDE8F08F00200146F9E700F04C
:10041000004230F000400AD0C10D01F56071C0F318
:10042000160042EA0151C2084007114370470020FC
:100430000146704701F0004330B421F0004150EA1A
:10044000010206D00A0DA2F56072C1F31301002A61
:1004500002DC30BC00207047440F44EAC104C100F4
:10046000E01830BC00EBC25000F01FB8202A04DBBB
:10047000203A00FA02F1002070479140C2F12003B7
:1004800020FA03F3194390407047202A04DB203AF6
:1004900021FA02F00021704721FA02F3D040C2F1A4
:1004A000200291400843194670470029A8BF7047B1
:1004B000401C490008BF20F00100704710B4B0FA9A
:1004C00080FC00FA0CF050EA010404BF10BC704735
:1004D00049B1CCF1200421FA04F411FA0CF118BF4F
:1004E000012121430843A3EB0C01CB1D4FEA00611E
:1004F0004FEA102042BF002010BC704700EBC350F1
:1005000010440029A4BF10BC7047401C490008BF1C
:1005100020F0010010BC704710B5141E73F10004E8
:1005200008DA401C41F1000192185B411A4301D1E5
:1005300020F0010010BD2DE9F04D92469B4611B10F
:10054000B1FA81F202E0B0FA80F220329046FFF771
:100550008DFF04460F4640EA0A0041EA0B0153466C
:100560005A46084313D0114653EA010019D0C8F186
:1005700040025046FFF789FF05460E465046594651
:100580004246FFF773FF084305D0012004E02046F0
:100590003946BDE8F08D0020054346EAE0762C435D
:1005A00037430A986305E40AA0EB08000022FD0A1D
:1005B00044EA47540A3002D500200146E9E7010524
:1005C00010196941DDE9084500196941BDE8F04DA0
:1005D000A2E72DE9FE4F804681EA0300C00F0C46DA
:1005E000009021F0004123F00045B8EB0200A94142
:1005F00005D24046214690461C460B46024623F053
:100600000040104347D0270DC7F30A00C3F30A5137
:100610000290401A019040286BDAC3F3130040F4B3
:10062000801B0098924620B10023D2EB030A63EBB3
:100630000B0B01985946C0F140025046FFF716FFD8
:1006400006460D4650465946019A00F0EBF810EB6D
:1006500008006141002487EA115284EAE7731A43D3
:1006600040D0009A62B3019A012A4FEA075215DC82
:10067000001B61EB02014FF0004202EA0752CDE994
:100680000042001C41F5801132462B46FFF753FF14
:1006900003B0BDE8F08F40462146F9E7001B61EB4F
:1006A0000201001C41F5801300185B412018A2F5DF
:1006B000001747EB030140EAD570B6196D4111E010
:1006C0006D084FEA360645EAC0754FEA0752001B2F
:1006D00061EB0201001C41F5801149084FEA30002E
:1006E0000019514132462B4603B0BDE8F04FFFF7E9
:1006F00013BF0098012240000023D0EB020263EBFD
:10070000E073009821464FEAE074B8EB000061EB1B
:100710000401E9E783F000435BE781F0004158E71B
:100720002DE9F04D81EA030404F0004B21F000456F
:1007300014464FF0000A23F0004150EA050220D091
:1007400054EA01021DD0C5F30A570246C5F313034C
:10075000C1F31300C1F30A5640F4801543F480132B
:10076000A7EB0608101BD64608F2FD3873EB050010
:1007700002D308F1010801E092185B41B8F1000FC3
:1007800003DA00200146BDE8F08D00204FF480110F
:10079000064684460EE0171B73EB050705D3121BB4
:1007A00063EB050306434CEA010C49084FEA3000AD
:1007B00092185B4150EA0107EDD152EA030012D0D2
:1007C00082EA040083EA0501084305D0101BAB410F
:1007D00006D20122002306E000224FF0004302E08F
:1007E0006FF0010253101AEB06004CEB085110EBAE
:1007F0000A0041EB0B01BDE8F04DFFF78DBE000094
:10080000064C074D06E0E06840F0010394E807005D
:1008100098471034AC42F6D3FFF7BAFCA8CA0008D8
:10082000C8CA0008202A06DBCB17203A41FA02F09A
:1008300043EAE07306E041FA02F3D040C2F120023D
:1008400091400843194670472DE9F04D00231A46A0
:100850001B1A8A4103DB00200146BDE8F08DC1F37D
:100860000A52C1F3130141F480154FF0000BD10778
:1008700002D100186D41521E0027044640F2FF11BC
:10088000384601EB620A3E468046024600204FF49D
:100890008011FFF7FAFDC2197141BB1846EB010048
:1008A000B4EB030C75EB000C04D3E41A65EB000504
:1008B00017460E46241908F101006D418046342880
:1008C000E3DDF91946EB0600091BA84103D24FF0FE
:1008D000FF32134601E0002213461BEB070046EBF4
:1008E0000A51BDE8F04DFFF717BE70B58C1810F82F
:1008F000015B15F0070301D110F8013B2A1106D165
:1009000010F8012B03E010F8016B01F8016B5B1E7E
:10091000F9D12B0705D40023521E0DD401F8013B59
:10092000FAE710F8013BCB1A921C03E013F8015BC5
:1009300001F8015B521EF9D5A142D8D3002070BD49
:1009400070470000464910B54A6822F440324A60B8
:100950004A6843681A434A6001684A6822F4807210
:100960004A6001684A68036942EA03224A600168F2
:100970004A6822F040724A6001684A6883681A43F4
:100980004A6001688A6822F400628A6001688A68A5
:10099000C3681A438A60816A6FF07062D14201684D
:1009A0008A6822F070628A6001688A680CD0836A63
:1009B0001A438A6001688A6822F040528A6001689E
:1009C0008A68C36A1A4301E022F040528A600168D3
:1009D0008A6822F002028A6001688A68037E42EA1D
:1009E00043028A6090F82010002901684A680FD0FD
:1009F00042F400624A6001684A6822F460424A6038
:100A000001684A68174C436A04EB43331A4301E018
:100A100022F400624A600168CA6A22F47002CA6263
:100A20000168CA6A838B104C04EB03531A43CA62F1
:100A300001688A6822F400728A6001688A6890F806
:100A4000303042EA43228A6001688A6822F4806278
:100A50008A6001688A68406942EA8020886010BD27
:100A60000023014000E0FFFF0000F0FF2DE9F0410E
:100A700016462DED0A8B0F468046B3F90030DDE9AE
:100A8000131000EE103ADDE91152F8EEC00AFE4CE8
:100A9000DDF840C0C4ED0E0ABCF9003000EE103A9B
:100AA000B8EEC00A84ED0F0AB5F90030032593FBB8
:100AB000F5F31BB203EB430300EE103AB8EEC00AA5
:100AC00084ED100AB2F9002000EE102AB8EEC01A28
:100AD00084ED111AB1F9001000EE101AB8EEC00A38
:100AE00084ED120AB0F9000021EE000A01EE900A2E
:100AF000F8EEE11AC4ED131A20EE210AB5EEC00A91
:100B0000F1EE10FA7DD0E14D297B9FEDE18AFDEEFB
:100B1000E00AB0EE480A10EE900A00B206F006FEB7
:100B200084ED0E0AD4ED0F0A297BB0EE480AFDEEE3
:100B3000E00A10EE900A00B206F0F8FD84ED0F0A0C
:100B4000D4ED100A297BB0EE480AFDEEE00A10EE63
:100B5000900A00B206F0EAFD94ED0E1ADFEDCD0A20
:100B600021EE201A20EE200A84ED0E1A94ED0F1AC1
:100B700021EE201A84ED0F1A84ED100AD4ED110A2B
:100B8000297BB0EE000AFDEEE00A10EE900A00B2FA
:100B900006F0E0FD84ED110AD4ED120A297BB0EED7
:100BA000000AFDEEE00A10EE900A00B206F0D2FD57
:100BB00084ED120AD4ED130A297BB0EE000AFDEE93
:100BC000E00A10EE900A00B206F0C4FDF0EE400A12
:100BD000C4ED130A94ED110A94ED121A20EE000AE6
:100BE00001EE010A00EEA00A06F08AFD84ED070A74
:100BF000D4ED110A60EE802AC4ED112AD4ED120A58
:100C000000E05CE160EE804AB0EE008AC4ED124A7A
:100C1000D4ED130A20EE803A84ED133A94ED040AE1
:100C2000D4ED060AD4ED031A94ED051A20EE202A1D
:100C300001EEC12A22EE084A21EE802A84ED084AFC
:100C400001EE202A22EE085A21EEA12A84ED095A4B
:100C500000EE402A01EE412A00EEA02A84ED0A2A85
:100C600064EE823A43EE453A23EE043A02EEC23A8B
:100C700062EE852AC4ED0B3A44EEC42A84ED0C3AA8
:100C8000C4ED0D2A94ED142A94ED015A03EE852A41
:100C900084ED142A94ED154A03EE054A84ED154AB5
:100CA000D4ED164A42EE854AC4ED164AD4ED0E5AEA
:100CB00094ED005A45EE235A35EE822A84ED0E2A31
:100CC000D4ED0F3A45EE033A33EE843A20EE424A31
:100CD00084ED0F3AD4ED103A01EE434A61EE835AA7
:100CE00045EE223AB0EE615A73EEA42A61EE824AD2
:100CF000C4ED102AC4ED171A41EE224A84ED180AF9
:100D000000EEE24A84ED191AC4ED1A0AD4ED023A53
:100D100040EEC34A40EE625A04EE235AB0EE404A17
:100D200004EEA34A40EE825A84ED035A84ED044A4D
:100D300061EEA21AF0EE414A45EEA34A40EE031AD4
:100D400025EE050AC4ED054A04EE040A41EE421AF6
:100D500004EEA40A41EEA30AC4ED060A00EEA00ABE
:100D600006F0CEFC84ED070AD4ED030A20EE80BA2B
:100D700084ED03BAD4ED040A60EE808AC4ED048ADF
:100D8000D4ED050A20EE809A84ED059AD4ED060A8A
:100D900060EE809A2BEE0B0AC4ED069A08EEE80A84
:100DA00009EE490A09EEA90A10EE100AFFF72FFB17
:100DB00029EE080A6BEE080A41EC1A0B20EE290A0C
:100DC00000EEA80A10EE100AFFF721FB41EC100B11
:100DD000B0EE4A1AF0EE6A1A04F0AAFA9FED2EBBA2
:100DE00051EC100B53EC1B2BFFF79FFAFFF722FB84
:100DF000386094ED040AD4ED060A94ED051A20EE4D
:100E0000080A20EE200AD4ED030A60EE880A00EEFC
:100E1000C10A10EE100AFFF7FAFA41EC100B03F0CA
:100E20006BFF9FED1F1B51EC100B53EC112BFFF7C9
:100E30007CFAFFF7FFFAC8F8000094ED03CAD4ED7E
:100E4000048AD4ED05AA2CEE0C0A94ED06AA08EE4D
:100E5000A80A0AEEEA0A0AEE4A0A10EE100AFFF79A
:100E6000D6FA28EEAA0A41EC190B0CEE0A0A20EE7B
:100E7000080A10EE100AFFF7CAFA41EC100BB0EEA8
:100E8000491AF0EE691A0FE01400002068070020EC
:100E90000000FA44728A8E3C0000006066A64C4056
:100EA0000000006066A64CC004F042FA53EC1B2B15
:100EB00051EC100BFFF739FAFFF7BCFA3060002055
:100EC000BDEC0A8BBDE8F0812DE9F04780469146E4
:100ED0000F46122002F0C2FE0446132002F0BEFEAE
:100EE00044EA0026142002F0B9FE0446152002F060
:100EF000B5FE44EA0025162002F0B0FE0446172095
:100F000002F0ACFEA8F8006044EA00203D80A9F899
:100F10000000BDE8F0872DE9FE4F1546DDE90C9A8B
:100F20000E4607460C221C466946104602F0BCFEDF
:100F3000BDF80080BDF802C0BDF80430BDF8062041
:100F4000BDF80810BDF80A00A4F80080A9F800C098
:100F5000AAF800303A8031802880BDE8FE8F00007A
:100F600038B5194804F072FF04F0E4FB164804F0A9
:100F7000A5FB044604F0DEFB24BB01208DF8000035
:100F80000146114A684604F0EFFF04F0D3FB0E4817
:100F900003F0F5F900208DF800000B4A01216846A6
:100FA00004F0E2FF04F0C6FB074803F0BEF902209C
:100FB0008DF80000044A0121684604F0D5FF04467C
:100FC00004F0B8FB204638BD68070020FEE70000AB
:100FD00000B58BB0684600F032F96946054800F06C
:100FE00075FE0221034800F0FBFD024801F086F97E
:100FF0000BB000BD9C0A0020014800F062BF000059
:101000009C0A002070B5174CA0F50072013A14D06C
:10101000A0F50072023A16D0A0F50072033A19D07A
:10102000B0F5017F1DD104F15400226E05469047B2
:10103000616E2846BDE870400847E268094890475D
:1010400008482169F6E70748A26A1C300546904720
:10105000E16AEEE70348626C383005469047A16CC0
:10106000E7E770BDD801002000B58BB0684600F0FE
:10107000E6F86946054800F029FE0221034800F021
:10108000AFFD024801F03AF90BB000BDC40A0020E0
:10109000014800F016BF0000C40A00207047008815
:1010A00040BA7047408840BA00B27047808840BA62
:1010B00000B270478079704713B5012201A900F092
:1010C0000FF81CBD08B50A0A8DF800208DF8011034
:1010D0000222694600F004F808BD00F001B80000E3
:1010E0002DE9F0410446407815460E4628B1012806
:1010F00025D1144AA168106808E0124A1C3AF9E7A1
:1011000003688B4201D118B106E080690028F7D14D
:101110002146104600F050F8227B58B1002107E02C
:101120005318082B06D2775C0344491C1F71C9B2BF
:10113000A942F5D3E18982898A4200D98181BDE83B
:10114000F08100004405002008B50A0E8DF800204B
:101150000A0C8DF801200A0A8DF802208DF8031080
:1011600004226946FFF7BCFF08BD00002DE9F041ED
:1011700005001AD00E4C0F4F287E002815D02846A7
:1011800000F08CF8064606F061FB20603968401AD2
:10119000606006F05BFBE168401AA06006F056FB59
:1011A000E060304600F0EEF8E6E7BDE8F0810000D0
:1011B00000000020800400202DE9F04105680F4662
:1011C00004460026F5B10FB91CE00546A8690028C1
:1011D000FBD11C2006F04AFDA861B9680160A9692D
:1011E000F8898881A86906610020011DAA69401C50
:1011F000C0B256540828F8D3A8698661A86944612A
:10120000A86917E01C2006F031FD2060B968016074
:101210002168F8898881206806610020011D226804
:10122000401CC0B256540828F8D320688661206854
:10123000446120682179491C2171BDE8F0810021B9
:10124000016041608160C160016101224161C0E9CA
:101250000612C0E90821704770B505004FF000067E
:1012600018D02879B0B12C6812E000BF06F0EEFA71
:101270002169411AA08900EB4002C2EBC010B1EB1A
:10128000C00F04D32146284600F01FF80126A469A8
:10129000002CEBD1304670BD00F052B810B50022E2
:1012A00088B1017E79B1D0F80820002100EB8103DC
:1012B000491CDC68C9B29C600329F7D30021416155
:1012C000017E491E0176104610BD012250B149B180
:1012D000037E042B06D200EB83029160017E491C41
:1012E000017600221046704710B5124A01689142FB
:1012F0000DD1114B00211C46A3F11C0200F06DFD25
:101300000D4821461C380068FFF77CFE10BD0B4AD3
:101310009142FBD1084B002124331C46A3F11C024F
:1013200000F05BFD0448214608300068FFF7B6FE78
:1013300010BD0000006400407C05002000680040F3
:1013400000B5034687B09A680092002201200292FD
:101350000392082204925A7852B1012A06D10A4611
:10136000064806AB694600BF00F04CFC07B000BD64
:101370000A4606AB69460248F6E70000C40A0020A8
:101380009C0A002030B587B004004FF0010521D041
:1013900008F0C4FE2068009000200290039008200E
:1013A00004900E496069884204D106AB221D69464B
:1013B0000B4807E009491C31884206D106AB221DC3
:1013C0006946084800F01EFC054606F03FFA206119
:1013D00008F0C4FE07B0284630BD000028050020F4
:1013E0009C0A0020C40A002010B500F004F8BDE8F3
:1013F000104000F037B800B500F004F85DF804EBD9
:1014000000F0CEB803480178034809B1012900D1A2
:1014100001707047780400206002002030B50F484A
:101420000F49046862680A6043685A684A608268C3
:1014300055688D60C5686868C86001F11000C560B6
:101440000460C0E901321030216801601968416010
:10145000116881602968C16030BD0000340400203B
:10146000D00700202DE9F04100211A4800F082F851
:101470000221184800F07EF80121164800F07AF8A1
:101480000321144800F076F8134F124E0024A7F100
:10149000100500BF57F82400007E50B155F8240015
:1014A000002182699047641C14F0FF04F2D0BDE86B
:1014B000F08104EB4400C0EB441006EB800090ED9B
:1014C0001C0ABDEEC00A10EE100A81B255F82400C5
:1014D0008269E7E764020020E00700202DE9F0417F
:1014E0000E462DED028B074600249FED0B8A0CE083
:1014F00004EB4400C0EB441007EB8005284606F0DF
:10150000FBF9641C85ED1C8AE4B2B442F0D3BDEC57
:10151000028BBDE8F0810000000000002DE9F041E1
:10152000114D00242DED028B26469FED108A104FA1
:1015300004EB4400C0EB441005EB8000314680ED25
:101540001C8A57F8240082699047641CE4B2042C7A
:10155000EED304210448FFF7C1FFBDEC028BBDE8C8
:10156000F041FFF748BF00006402002000000000C7
:10157000D007002010B501EB4102C2EB411100EB96
:101580008104204694EC020A30EE600A84ED020ADF
:1015900008F034FC94ED0A0A84ED1C0A10BD704773
:1015A00013480168B1F9021000EE101A1149B8EEA3
:1015B000C00A81ED010A4268B2F9022000EE102A49
:1015C000B8EEC00A81ED1E0A8268B2F9022000EE70
:1015D000102AB8EEC00A81ED3B0AC068B0F90200DB
:1015E00000EE100AB8EEC00A81ED580A70470000FC
:1015F000F0070020640200200021014800F016BF1F
:10160000EC0A002010B50A4C2068816888476068A1
:1016100081688847A06881688847E0688168884752
:1016200020698168884760698168BDE81040084783
:1016300048020020014800F041BF0000E00C0020FB
:10164000014800F03BBF0000800C0020014800F082
:1016500035BF0000A00D0020014800F02FBF0000A2
:10166000400D00202DE9F04F85680024099E802D53
:1016700018D0894DC563894D456490F83450012DCB
:1016800015D0012580F8345090F83550012D10D038
:10169000002180F834100224002180F83410204604
:1016A000BDE8F08F4FF4807141650120F8E702201A
:1016B000F6E7022580F835500025456505682F6856
:1016C00047F480272F6005682B6103685E6083689C
:1016D000402B03682AD099600168CA60714D704E32
:1016E000704FDFF8BC81DFF8B891DFF8B8A1DFF800
:1016F000B4B1EA14DFF8A8E1016818363037930274
:10170000A9F148090AF1600A0BF1180BAEF1300E8D
:101710004FF0006C41452DD9A94205D0494503D071
:10172000514501D0B14205D1202220E09A600268E3
:10173000D160D3E759451AD0714518D0594D783545
:10174000A94214D0564D3035A94210D0B9420BD021
:10175000534A183A914207D0524A9032914203D0EC
:101760004F4A4832914201D11A4600E062464C4944
:101770004C392EE0DFF82C8108F1A80841452AD920
:10178000A94205D0494503D0514501D0B14201D10C
:1017900020221CE059451AD0714518D0414D7835AA
:1017A000A94214D03E4D3035A94210D0B9420BD0D9
:1017B0003B4A183A914207D03A4A9032914203D0BC
:1017C000374A4832914201D11A4600E06246344914
:1017D00050390A605AE0DFF8CC8008F148084145EA
:1017E0002AD9A94205D0494503D0514501D0B1427B
:1017F00001D120221CE059451AD0714518D0294D3D
:101800007835A94214D0264D3035A94210D0B942BE
:101810000BD0234A183A914207D0224A9032914283
:1018200003D01F4A4832914201D11A4600E0624675
:101830001C491039CA6029E0A94205D0494503D0A6
:10184000514501D0B14201D120221CE059451AD0A6
:10185000714518D0134D7835A94214D0104D30354C
:10186000A94210D0B9420BD00D4A183A914207D084
:101870000C4A9032914203D0094A4832914201D138
:101880001A4600E06246074910398A6001680A6812
:1018900042F001020A60FFE68D650008A5650008B8
:1018A000586402401060024001681823CAB2103A1E
:1018B000B2FBF3F2054B6FF30901032A9B5CC3658E
:1018C00000D9091D816508467047000064C90008F9
:1018D00010B5014600208B698A6A4FF0C07453B17D
:1018E000B3F5005F15D072B1012A0CD0022A0AD0DC
:1018F000032A09D104E01AB1012A06D0022A03D131
:10190000C96AC90100D5012010BDC96AA142FAD037
:1019100010BD002AF7D0012AF2D0022AF3D0032A00
:10192000F3D010BD70B590F834500024012D0CD0C8
:10193000012580F8345090F835600025012E06D03E
:1019400080F834500224204670BD022070BD02266B
:1019500080F83560456505682E6826F480262E607F
:1019600005686B608368402B036808D09960016844
:10197000CA600068016841F001010160E3E79A6014
:101980000268D160F5E710B502F086FCFEF7D8FFDB
:10199000FFF732FE03F0E4F803F00AF903F034F93C
:1019A00003F050F9FFF714FBBDE81040FFF75CBBF4
:1019B00001680A68D20604D5C968C90601D508F0CD
:1019C0009FBA704770477047044A00F57A701060FC
:1019D000101D01F57A710160704700003404004069
:1019E00078B50024009490F83C20012A19D00122F7
:1019F00080F83C200A6807230568092A13D9EE6895
:101A00000A3A02EB420293409E43EE600B788A68EA
:101A10000A3B03EB43039A400368DD682A43DA601C
:101A200010E0022078BD2E6902EB420293409E43F3
:101A30002E610B788A6803EB43039A4003681D69A3
:101A40002A431A614A681F23072A13D205686E6B5E
:101A5000521E02EB820293409E436E630B790A880A
:101A60005B1E92B203EB83039A4003685D6B2A43CB
:101A70005A6327E005680D2A12D22E6BD21F02EBA3
:101A8000820293409E432E630B790A88DB1F92B239
:101A900003EB83039A4003681D6B2A431A6311E02A
:101AA000EE6A0D3A02EB820293409E43EE620B799E
:101AB0000A880D3B92B203EB83039A400368DD6A08
:101AC0002A43DA62164B0568144A9D4206D10D6816
:101AD000122D03D1556845F48005556005689D4277
:101AE00018D10B68102B01D0112B13D1536843F47C
:101AF00000035360096810290CD10A490A4A096891
:101B0000B1FBF2F101EB8101490000E0491E0091B7
:101B10000029FBD180F83C40002078BD0023014023
:101B200000200140B804002040420F0070B50400BE
:101B30004FF0000503D0206C002610B107E0012013
:101B400070BD204600F01CF8666484F83C60206C90
:101B5000C00610D4206C20F4885040F002002064AD
:101B60002046FEF7EFFE6664206C20F0020040F095
:101B70000100206400E0012584F83C60284670BD27
:101B800010B586B0044614216846FEF7C3FB114920
:101B9000206888421CD110480021026842F48072FB
:101BA0000260006800F4807005900B4814380268E9
:101BB00042F004020260006800F004000590012079
:101BC00000900320CDE901016946044800F0B0FD12
:101BD00006B010BD00200140443802400008024019
:101BE00090F82020012A07D0022A05D0416A41F44A
:101BF0008021416201207047006842690A434261C6
:101C000000207047F0B590F820500468A468012DBA
:101C100005D0022D03D0416A41F4802153E014F035
:101C2000406F01D1E5004BD5C4F30164022C03D908
:101C3000416A41F4000146E00125A5401D608D6820
:101C40004FF4C0739DB1CE6835434E6845EAC60572
:101C5000066803EB0417F5514FF4C275076805EBEE
:101C600004150E697E51097D012905D009E00E8811
:101C7000CD6845EA4655EBE701684E5946F4807653
:101C80004E511179D2F805504FF4C67641EA052538
:101C9000016806EB04168D511178D2F801204FF43B
:101CA000C47541EA0221026805EB04155151006830
:101CB00003EB0411425842F0010242500020F0BDF3
:101CC000416A41F4001141620120F0BD10B590F865
:101CD0002020012A07D0022A05D0416A41F4802140
:101CE0004162012010BD3B48D0F8002242F00102C1
:101CF000C0F80022D0F8002222F47C52C0F8002262
:101D0000D0F800224B6A42EA0322C0F800220A7D82
:101D100002F01F0301229A40D0F81C329343C0F80E
:101D20001C32CB69B3B9D0F80C329343C0F80C32F3
:101D30008C894B6864F31F434C6900EBC404C4F8FE
:101D400040320C890B6864F31F434C6900EBC404F8
:101D5000C4F84432CB69012B16D1D0F80C321343AE
:101D6000C0F80C320C884B6864F31F434C6900EBDD
:101D7000C404C4F840320C89CB6864F31F434C6937
:101D800000EBC404C4F844328B69002BD0F8043251
:101D90000ED01343C0F804320B69002BD0F8143274
:101DA00008D01343C0F81432096A012904D008E0AE
:101DB0009343EFE79343F5E7D0F81C121143C0F8C3
:101DC0001C12D0F8001221F00101C0F8001200200E
:101DD00010BD000000640040704730B590F820400E
:101DE000012C05D0022C03D0416A41F480215DE032
:101DF0000468002955D02469A40754D04FF4D8743E
:101E0000056804EB01142D5915F00405956005686B
:101E10002D594ED0ED08556005682C5904F0020488
:101E2000D4604FF4DA74056804EB01142D5905F001
:101E30000F05156105682D59C5F3072595610568DE
:101E40002C59240C54614FF4DC72046802EB01122B
:101E5000A4581C700468A458240A5C700468A45830
:101E6000240C9C700468A258120EDA704FF4DE72D3
:101E7000046802EB0112A4581C710468A458240AD7
:101E80005C710468A458240C9C710468A258120E5A
:101E9000DA71006881B1016941F02001016100201F
:101EA00030BDE468A8E7416A41F4001141620120B5
:101EB00030BD6D0D1560AFE7C16841F02001C16014
:101EC000EDE72DE9F05F0546006800244669D0F88B
:101ED00004908768D0F80CB0D0F810A0D0F8188023
:101EE000F10748D0F90714D001218160B80703D564
:101EF000284600F030FA0CE0780702D54FF4006471
:101F000007E0380702D54FF4805402E0284600F07D
:101F100021FAF80516D529684FF480708860B80555
:101F200003D5284600F019FA0CE0780502D544F4F0
:101F3000005407E0380502D544F4804402E0284606
:101F400000F00AFAF80316D529684FF4803088604B
:101F5000B80303D5284600F002FA0CE0780302D556
:101F600044F4004407E0380302D544F4803402E02E
:101F7000284600F0F3F9300707D55FEACB6004D5B7
:101F80002968102044F40074C86070074FF00807F7
:101F900007D55FEA0B7004D52868C760284600F0B3
:101FA00099F9B00706D52868C068800702D028468E
:101FB00000F092F9700607D55FEACA6004D5296877
:101FC000102044F480640861B00607D55FEA0A7007
:101FD00004D528680761284600F08CF9F00606D57C
:101FE00028680069800702D0284600F084F9B00311
:101FF00008D55FEAC96005D52968102048602846E1
:1020000000F07AF9F00307D55FEA097004D5286873
:102010004760284600F0A4F9300446D55FEA4970CD
:1020200040D5F00504D55FEAC87001D044F0010442
:10203000B00504D55FEA887001D544F0020470054C
:1020400004D55FEA487001D544F00404300529D571
:1020500018F0700F26D008F07000402815D006DC6C
:10206000102809D020280AD0302816D10AE050289C
:102070000ED0602811D10EE044F008040DE044F0C9
:1020800010040AE044F0200407E044F0400404E0B7
:1020900044F0800401E044F480742868816921F0F0
:1020A00070018161296804204860002C05D0686AAD
:1020B000204368622846FFF78FFEBDE8F09F70B5A9
:1020C000040003D094F8200010B104E0012070BD9A
:1020D000204600F081F82068016821F002010160CB
:1020E00000F00EFC0546052604E000F009FC401B4C
:1020F0000A2811D8206840688007F6D42068016853
:1021000041F00101016000F0FBFB05460BE000F02F
:10211000F7FB401B0A2806D9606A40F40030606271
:1021200084F82060D2E720684068C007EFD0207EA6
:102130000128206801683DD021F080010160607EA7
:1021400001282068016838D021F040010160A07E9C
:1021500001282068016833D021F020010160E07E71
:102160000128206801682ED041F010010160207F15
:1021700001282068016829D021F008010160607FF2
:1021800001282068016824D021F004010160D4E90D
:1021900002010843D4E90412114308436168491E4F
:1021A00008432168C86100206062012084F8200093
:1021B000002070BD41F08001C0E741F04001C5E75B
:1021C00041F02001CAE721F01001CFE741F00801FA
:1021D000D4E741F00401D9E7F0B587B004461421F3
:1021E0006846FEF797F8364B3648DFF8D0E01968B6
:1021F000D4F800C0334A03250226092710300024F2
:10220000491CF44522D11960012907D1016841F028
:1022100000710160006800F000700590106840F0E7
:10222000080010601068CDE9005600F00800CDE904
:10223000047069462448CDE9024500F079FA00228D
:102240000521142000F0FAFB142032E0DFF87CE0D6
:10225000F44530D1D0F800C04CF0806CC0F800C01C
:10226000D0F800C001290CF0806CCDF814C01960C2
:1022700007D1016841F000710160006800F0007052
:102280000590106840F002001060106802AB00F08A
:10229000020005906020CDE9000683E8B0006946A1
:1022A0000B4800F045FA00220521402000F0C6FB53
:1022B000402000F0B5FB07B0F0BD00000064004016
:1022C000A804002030380240000C024000680040A2
:1022D0000004024070470000044A0168914202D0A5
:1022E000034A914201D1FEF7FFBF704700640040EE
:1022F00000680040704770477047000070B50446A2
:1023000090F82000012804D0606A40F40020606248
:1023100018E0022084F820002068016821F0010103
:10232000016000F0EDFA05460EE000BF00F0E8FAAB
:10233000401B0A2808D9606A40F40030606205201A
:1023400084F82000012070BD20684068C007EDD1EE
:10235000606270BD70477047704770477047704744
:10236000704770B54379012B1AD0012646710223BC
:10237000037105682C6840F6FE7393409C43D1E9D5
:1023800000310B43934023432B6001680B68C0244A
:102390009440A3430B60067100214171084670BD53
:1023A000022070BD70B5040003D02079002510B163
:1023B00005E0012070BD6571204600F007F802209D
:1023C0002071256101202071002070BD10B586B0FC
:1023D000044614216846FDF79DFF11492068884294
:1023E0001CD110480021026842F0005202600068CF
:1023F00000F0005005900B481038026842F00102CE
:102400000260006800F00100059010200090032099
:10241000CDE901016946044800F08AF906B010BD13
:1024200000740040403802400000024030B542795C
:10243000012A16D0012242710223037103681D682C
:1024400002FA01F425431D60002901680B680AD0D7
:102450000C6803F4802304F46014B3F5802F0FD0CC
:1024600015E0022030BD0C6803F0040304F03804CA
:10247000042B0CD1382C0AD14B6843F0010305E042
:10248000B4F5601F03D14B6843F002034B60027147
:1024900000214171084630BD90F83510022903D063
:1024A0008021416501207047052180F835100068C2
:1024B000016821F001010160002070472DE9F84317
:1024C00004464FF00009CDF8009063484FF41651D0
:1024D000A56D0068B0FBF1F72E6894F85C10082039
:1024E00000FA01F131420FD021680A6852070BD57A
:1024F0000A6822F004020A6094F85C108840A86020
:10250000606D40F00100606594F85C104FF00108C8
:1025100008FA01F0304208D021684969090604D55B
:10252000A860606D40F00200606594F85C100420C3
:102530008840304208D021680968890704D5A8601E
:10254000606D40F00400606594F85C1010208840D5
:10255000304218D021680968090714D5A86020689E
:102560000168490304D50068000308D5A16C07E0A1
:102570000168C90503D4016821F008010160216CDC
:1025800009B12046884794F85C10202088403042EA
:1025900031D021680968C9062DD5A86094F83500A6
:1025A00005282068016806D0490347D50068000364
:1025B0001DD4616C1CE021F01601016020684169A6
:1025C00021F080014161206C08B9A06C20B1206825
:1025D000016821F00801016094F85C103F208840F8
:1025E000A86084F8349084F83580216D1FE0E16B99
:1025F00009B120468847606D00282BD0606DC00768
:1026000014D0052084F835002068016821F001010C
:1026100001600098401C0090B84203D82068006810
:10262000C007F6D184F8349084F83580E16C002935
:1026300010D001B02046BDE8F04308470168C90545
:10264000D5D4016821F01001016084F8349084F839
:102650003580CCE7BDE8F883B80400202DE9F041CF
:10266000044600F04DF906465CB1002584F834506C
:10267000022084F835002068016821F00101016022
:102680000DE00120BDE8F08100F03AF9801B05283B
:1026900005D920206065032084F83500F2E7206822
:1026A0000068C007F0D12268116820480140D4E9D1
:1026B00001031843D4E903363343184363691843CD
:1026C000A3691843E3691843236A18430843616AFE
:1026D000042903D1D4E90B1319430843106020687F
:1026E0004069666A20F0070130460E43012704283E
:1026F0000CD1A06A0643E06A40B12046FFF7E8F833
:1027000020B14020606584F83570BAE720684661E2
:102710002046FFF7C9F894F85C203F219140816082
:10272000656584F835700020ACE700003F8010F04C
:102730002DE9F84F00224FF0010803254FF00F0E4E
:102740000B6808FA02F42340A3426ED14E68012EB2
:1027500005D0022E03D0112E01D0122E12D1866880
:102760004FEA420C05FA0CF7BE43CF6807FA0CF7A4
:10277000374387604668A6430C79C4F3001494403D
:1027800034434460C668570005FA07FC8C6826EAA3
:102790000C06BC403443C4604C68022C01D0122C9F
:1027A00013D1D40800EB8404A346D4F82090540736
:1027B0004FEAD46A0EFA0AF629EA06090E6906FA01
:1027C0000AF646EA0906CBF8206006680C7926EA84
:1027D0000C0604F00304BC40344304604C68E4007D
:1027E00065D5364C266846F480462660246822F07B
:1027F000030604F480440094314C3444A446D4F8D5
:1028000008489607370F0EFA07F6B4432D4EB0422C
:1028100001D1002624E02C4EB04201D101261FE058
:102820002A4EB04202D102261AE040E0284EB042C1
:1028300001D1032614E0274EB04201D104260FE057
:10284000254EB04201D105260AE0244EB04201D106
:10285000062605E0224EB04201D1072600E00826F8
:10286000BE402643CCF808681E4E34684F689C432F
:10287000FF0300D51C4334601A4C241D26684F68A2
:102880009E43BF0300D51E432660164E08363468AB
:102890004F689C43FF0200D51C433460114E0C3638
:1028A00034684F689C43BF0200D51C433460521CFF
:1028B000102AFFF445AFBDE8F88F0000443802400D
:1028C00000300140000002400004024000080240C5
:1028D000000C0240001002400014024000180240A8
:1028E000001C0240003C0140426931EA020200D172
:1028F0000904816170470AB1816170470904FBE7EF
:102900000148806870470000AC0400200948016855
:10291000094A1278114401604FF08041496A006809
:1029200000EB4002C2EBC01001EBC000034908609D
:1029300070470000B4040020AC0400201000002008
:102940000B4810B5016841F400710160016841F461
:1029500080610160016841F480710160032000F032
:102960008DF8002000F006F800F03EF8002010BDC1
:10297000003C024010B5014688B000221C2000F047
:102980005DF81C2000F04CF814480024016841F068
:1029900001010160006805A900F001000690684689
:1029A00000F018F900F036F90D494000B0FBF1F1E4
:1029B0000C484FF08042491E026040F2E732C0E905
:1029C0000324C0E9011400F099FB10B1012008B004
:1029D00010BD044800F0D0FBF9E700004038024089
:1029E00040420F00000E00200C4882B0016841F404
:1029F00080410160006800F4804000900748001F9B
:102A0000016841F0805101600068002200F08050B0
:102A100000900F21901E02B000F010B84438024020
:102A2000002809DB00F01F020121914040098000CD
:102A300000F1E020C0F8001170470000F0B40E4B28
:102A40001B680C46C3F30223C3F10705042D00D90C
:102A50000425191D072901D2002300E0DB1E0126F1
:102A600006FA05F1491E214099409E40761E164007
:102A70003143F0BC02F01CB90CED00E0064900F057
:102A8000070208684FF6FF03184040EA0220034A95
:102A900010430860704700000CED00E00000FA05EC
:102AA0002DE9F0470E46050065D0DFF81481D8F80F
:102AB0000000F7B200F00F00B04207D288F80070B3
:102AC000D8F8000000F00F00B04254D128683D4C07
:102AD000810712D5400703D5206840F4E0502060FC
:102AE0002878000703D5206840F460402060206803
:102AF000A96820F0F000084320602878C0072DD096
:102B0000304968680839012812D0022813D00328F8
:102B100011D00968890700292DDA216821F0030105
:102B200001432160FFF7ECFE814641F2883A0EE056
:102B300009688903EFE709688901ECE7FFF7E0FE20
:102B4000A0EB0901514502D90320BDE8F0872068B8
:102B5000696800F00C00B0EB810FEFD1D8F80010DD
:102B6000404601F00F01B14207D90770006800F03C
:102B70000F00B04201D00120E7E72878400705D5D3
:102B80002068E96820F4E0500843206028780007B6
:102B900006D52068296920F4604040EAC100206021
:102BA00000F058F82168084AC1F30311515CC8408D
:102BB0000649086006480068FFF7DCFE0020C4E70D
:102BC000003C0240083802406CC90008B8040020EC
:102BD000B00400200F2202600C4A136803F00303C4
:102BE0004360136803F0F0038360136803F4E05359
:102BF000C36012684FF4E05303EAD2020261044852
:102C0000006800F00F0008607047000008380240BC
:102C1000003C02400448054900680968044AC1F3C1
:102C20008221515CC8407047B80400200838024037
:102C30007CC900080448054900680968044AC1F3D2
:102C40004231515CC8407047B80400200838024047
:102C50007CC90008154810B5006810F00C02144833
:102C600013D01449042A0FD0082A0ED10F4C241F68
:102C70002268236802F03F025B0207D52068C0F398
:102C80008810A0FB010106E0084610BD2168C1F3D1
:102C90008811A1FB00010023FDF7F2FA2168C1F3BE
:102CA0000141491C4900B0FBF1F010BD0838024059
:102CB0000024F40040787D012DE9F84F04006ED027
:102CC0002078DFF83C93C007A9F104054AD009F148
:102CD00004000168C1F38101012908D00068C0F334
:102CE000810002280AD1D9F80000400206D52868E0
:102CF000800337D560680028E1D033E06068B0F524
:102D0000803F10D0B0F5A02F286810D020F480307C
:102D10002860286820F4802028606068A8B1FFF748
:102D2000EFFD06460DE0286840F48030F4E740F4FB
:102D300080202860F7E700BFFFF7E2FD801B6428D2
:102D400073D828688003F7D50CE0FFF7D9FD064655
:102D500005E000BFFFF7D4FD801B6428F0D8286889
:102D60008003F7D42078DFF89C8280074FF0000AB8
:102D70003ED5A348001D016811F00C0F08D0006873
:102D8000C0F3810002280BD1D9F80000400207D41B
:102D90002868800716D5E068012800D112E02BE1F1
:102DA000E068B8B10120C8F80000FFF7A9FD0646A9
:102DB00005E000BFFFF7A4FD801B0228C0D82868EB
:102DC0008007F7D52868216920F0F80040EAC100A3
:102DD00028600DE0C8F800A0FFF792FD064604E069
:102DE000FFF78EFD801B02281FD828688007F7D4C4
:102DF0002078000722D5824E83486169703671B110
:102E000001210160FFF77CFD074604E0FFF778FD34
:102E1000C01B022809D830688007F7D50EE0C0F83B
:102E200000A0FFF76DFD074605E082E0FFF768FDB3
:102E3000C01B02287DD830688007F7D4207840076F
:102E400068D5DFF8BCB100270BF13C0BDBF80000C4
:102E5000C0000BD4DBF8001041F08051CBF800101B
:102E6000DBF80000012700F080500090674E3068CA
:102E7000C00510D4306840F480703060FFF740FD2A
:102E8000009005E0FFF73CFD0099401A022850D859
:102E90003068C005F6D55A4EA0686C3601280FD0B0
:102EA0000528306810D020F001003060306820F034
:102EB00004003060A068B8B1FFF722FD00900FE079
:102EC000306840F00100F4E740F004003060F7E7BC
:102ED000FFF716FD0099411A41F28830814266D809
:102EE00030688007F4D50EE0FFF70AFD009007E098
:102EF000FFF706FD0099411A41F28830814256D809
:102F000030688007F4D42FB1DBF8001021F0805135
:102F1000CBF80010A069C8B33949091D0968C1F38D
:102F2000810102294AD00228504607D0C8F8600023
:102F300000E03CE0FFF7E4FC04463BE04746C8F80D
:102F40006000FFF7DDFC064605E000BFFFF7D8FC98
:102F5000801B02282BD828688001F7D4D4E9070108
:102F60000843A16A2A4A490802EB0141626A41EA20
:102F70008211084394F82C1040EA0161C9F800104E
:102F800001203866FFF7BCFC044606E036E000BFCF
:102F9000FFF7B6FC001B022809D828688001F7D586
:102FA0002CE000BFFFF7ACFC001B022802D9032075
:102FB000BDE8F88F28688001F4D41FE00128F7D01D
:102FC000D9F80000E26900F48001914214D1226A2C
:102FD00000F03F0191420FD147F6C071626A014093
:102FE000914209D1A26A00F44031914204D1E16AD0
:102FF00000F07060884201D00120D9E70020D7E7B7
:103000000438024000004742800E474200700040F2
:103010000000FFFF7047704710B590F83C20012A70
:1030200022D0012280F83C20CA688C6822F44072C9
:1030300022434C6822F4806222430C6822F400622E
:1030400022430C6922F4805222434C6922F400523C
:103050002243C969002322F480420A4301684A647A
:1030600080F83C30002010BD022010BD70B590F8F3
:103070003C20012A32D0012480F83C40022280F812
:103080003D2003685A689D6822F070060A68324342
:103090005A60134B02689A4214D0B2F1804F11D09B
:1030A000104B9A420ED0104B9A420BD00F4B9A42C3
:1030B00008D00F4B9A4205D00E4B9A4202D00E4BCD
:1030C0009A4204D1496825F080031943916080F841
:1030D0003D40002180F83C10084670BD022070BDC4
:1030E000000001400004004000080040000C0040C7
:1030F00000040140004001400018004010B50400E9
:1031000003D094F83D0010B107E0012010BD00206D
:1031100084F83C00204600F00DF8022084F83D00C1
:10312000211D206801F066FA012084F83D0000208E
:1031300010BD000008B500680C49884208D10C4851
:10314000016841F001010160006800F001000BE03E
:103150000849884209D10648001F016841F0020170
:103160000160006800F00200009008BD000001400E
:1031700044380240000400400168CA6842F001027D
:10318000CA600068816801F00701062903D0016860
:1031900041F0010101600020704770B5044690F8CD
:1031A0003C00012817D0012584F83C50022084F807
:1031B0003D002068826822F0770222F47F4282601C
:1031C0000868502830D00DDC20284DD005DC98B39D
:1031D00010283BD148E0022070BD302844D0402860
:1031E00034D139E0602828D0702806D0B0F5805F4F
:1031F0002CD0B0F5005F29D10AE0CB68D1E90121DC
:10320000206801F068FA2068816841F0770109E0E0
:10321000CB68D1E90121206801F05DFA206881685E
:1032200041F48041816011E0CA684968206801F07A
:1032300027FB5021206807E016E0CA68496820682B
:1032400001F02FFB6021206801F04FFA84F83D5017
:10325000002084F83C0070BDCA684968206801F00D
:103260000FFB40212068EFE7226801461046EBE79C
:10327000704770B50446006801694FF00005C94306
:10328000890715D4C168C943890711D4E91E0161B2
:1032900001202077206880698007204602D0FFF750
:1032A000E7FF04E000F0DAF8204600F05CF925774B
:1032B00020680169C943490717D4C168C943490750
:1032C00013D46FF004010161022020772068806927
:1032D00010F4407F204602D0FFF7CAFF04E000F060
:1032E000BDF8204600F03FF9257720680169C94301
:1032F000090716D4C168C943090712D46FF0080141
:103300000161042020772068C0698007204602D030
:10331000FFF7AEFF04E000F0A1F8204600F023F92B
:10332000257720680169C943C90617D4C168C94314
:10333000C90613D46FF010010161082020772068BE
:10334000C06910F4407F204602D0FFF791FF04E0EF
:1033500000F084F8204600F006F92577206801691E
:10336000C943C90708D1C168C943C90704D1891E27
:103370000161204600F01AF920680169C943090675
:1033800009D4C168C943090605D46FF08001016101
:103390002046FFF73FFE20680169C943490609D46A
:1033A000C168C943490605D46FF040010161204658
:1033B00000F003F920680169C94389060BD4C1688C
:1033C000C943890607D46FF0200101612046BDE89A
:1033D0007040FFF720BE70BD10B586B004461421C2
:1033E0006846FCF797FF2368174C00211748022214
:1033F000A34211D1036843F010030360006800F09A
:103400001000059090020090CDE901210120CDE946
:10341000031069460E4812E00E4CA34211D1036816
:1034200043F001030360006800F001000590C02034
:103430000090CDE90121CDE9031269460648FFF766
:1034400077F906B010BD000000000140303802409E
:10345000001002400004004000000240704770B5B8
:10346000044690F83C000D4601280DD0012684F852
:103470003C60022084F83D0042B1042A18D0082A9A
:103480002AD00C2A4DD139E0022070BD206801F00D
:1034900035F92068816941F00801816120688169FE
:1034A00021F004018161206881692A69114311E0DA
:1034B000206801F053F92068816941F4006181615D
:1034C0002068816921F480618161206881692A69AD
:1034D00041EA0221816124E0206801F075F9206849
:1034E000C16941F00801C1612068C16921F004018E
:1034F000C1612068C1692A69114311E0206801F0A7
:1035000097F92068C16941F40061C1612068C1690F
:1035100021F48061C1612068C1692A6941EA022100
:10352000C16184F83D60002084F83C0070BD10B596
:10353000040003D094F83D0010B107E0012010BD55
:10354000002084F83C00204600F00CF8022084F8AB
:103550003D00211D206801F04DF8012084F83D0058
:10356000002010BD7047704710B504460068012266
:1035700001F0A4F80B492068884202D00A49884229
:1035800003D1416C41F4004141642068816801F03D
:103590000701062903D0016841F001010160002004
:1035A00010BD000000000140000401400068B0F1BF
:1035B000804F01D1FFF7AAB97047704770470000EC
:1035C00070B5026804461068D168536910F00F0F97
:1035D00052D003F0010501F490762E435FD0C2076C
:1035E00005D0CA0503D5E26B42F00102E26342074F
:1035F00005D5DA0703D0E26B42F00202E2638207EC
:1036000005D5DA0703D0E26B42F00402E263020759
:1036100007D501F020022A4303D0E26B42F00802F2
:10362000E263E26B002A33D0800604D5880602D517
:10363000204601F077F920684069E16BC0F3801003
:10364000090700D428B3204601F05EF920684169DB
:1036500049061AD5416921F040014161606BA0B172
:103660001B490165606BFEF717FF002810D0606BE7
:10367000016DBDE870400847830610D58B060ED556
:103680002046BDE8704001F04DB92046FFF796FF97
:1036900070BD2046FFF792FF0020E06370BD030677
:1036A00006D50B0604D52046BDE8704001F01ABAD5
:1036B0004006F3D54806F1D5D168204621F04001F7
:1036C000D160202184F8391000F0B5F970BD0000F8
:1036D000F948000870B5040004D094F839000025BA
:1036E00010B106E0012070BD84F83850204600F08B
:1036F00023F8242084F839002068C16821F400519F
:10370000C160204601F05AF92068016921F4904116
:1037100001612068416921F02A0141612068C16886
:1037200041F40051C160E563202084F8390084F839
:103730003A00002070BD00002DE9F04F87B005462B
:1037400014216846FCF7E6FDAF48DFF8B882103870
:103750000222D5F800C00024AB4B0321DFF8ACB245
:10376000960607154FF0010E4FF0080A4FF48079C6
:10377000C4453BD1D3F800C04CF4002CC3F800C0C2
:103780001B6803F400230593036843F001030360FF
:10379000006800F0010005908DE80640CDE9031AAD
:1037A00069465846FEF7C4FFDFF8688298494046EC
:1037B000C8F80010C0E90164C0E90347C8F8144024
:1037C000C0E90649C8F82040C8F82440FEF746FF83
:1037D00008B1FEF7F8F8C5F834800022114634200D
:1037E000C8F83850FFF72AF934205EE0DFF8288265
:1037F000C4455FD1D3F800C04CF4801CC3F800C0AE
:103800001B6803F480130593036843F0040303600B
:10381000036803F004030593036843F0080303609F
:1038200000688B4600F0080005904FF48050CDE909
:1038300000020120CDE9020B90466946CDF810A0A8
:103840007648FEF775FF0420CDE900080120CDE998
:10385000020B6946CDF810A07148FEF769FFDFF84A
:10386000B4816B4908F1600830394046C8F800104F
:10387000C0E90164C0E90347C8F814404FF440317F
:10388000C8F81840C8E90791C8F82440FEF7E6FEDA
:1038900008B1FEF798F8C5F83480002205213520DC
:1038A000C8F83850FFF7CAF83520FFF7B9F807B065
:1038B000BDE8F08FDFF86C814FF0070EC44545D1AD
:1038C000514B1B1DD3F800C04CF0100CC3F800C0C6
:1038D0001B6803F010030593036843F001030360C2
:1038E0000068CDE9024100F0010005904FF4C0608E
:1038F000CDE90002CDF810E069465846FEF718FF02
:10390000DFF81081484908F1C0084046C8F80010A7
:10391000C0E90164C0E90347C8F814404FF400311E
:10392000C8F81840C8E90791C8F82440FEF796FE89
:1039300008B1FEF748F8C5F834800022052125209B
:10394000C8F83850FFF77AF82520AEE7DFF8DC80BA
:10395000C445ACD1D3F800C04CF4003CC3F800C05F
:103960001B6803F400330593036843F0010303600D
:10397000036803F001030593036843F00803036041
:103980000068904600F0080005900320CDE900A2F1
:10399000CDE90240F2466946CDF810E05846FEF700
:1039A000C7FE2020CDE900080320CDE9024069468A
:1039B000CDF810A01A48FEF7BBFE1549DFF870805D
:1039C00048314046C8F80010C0E90164C0E9034727
:1039D000C8F814404FF44031C8F81840C8E90791BE
:1039E000C8F82440FEF73AFE08B1FDF7ECFFC5F831
:1039F0003480002211462620C8F83850FFF71EF800
:103A0000262052E7004C00404038024000000240AF
:103A100040600240800C002000500040000802403E
:103A2000000C02400010014040640240004400408D
:103A3000A00D002070477047FEE7000070B50D4CE8
:103A40000025C4F8B4520C48016821F040410160DF
:103A5000016841F080410160C4F8BC52022004F5C5
:103A60002D7402F087FD01202060022002F082FD0B
:103A7000256070BD008040420004024070B50D4CCE
:103A80000025C4F8B4520C48016821F0404101609F
:103A9000016841F0804101600126C4F8BC62022047
:103AA00004F52D7402F066FD2660022002F062FD2E
:103AB000256070BD00804042000402402DE9F047BF
:103AC000814616480024016821F0404101600168E8
:103AD0000160134E254627464FF00108C6F8B47220
:103AE000022002F047FDC6F8B4826006040ED6F844
:103AF0003C0208B1641CE4B2012002F03BFD6D1CE5
:103B0000EDB2082DEAD3B9F1000F04D0FFF796FF0C
:103B10002046BDE8F087FFF7B1FFF9E70004024057
:103B2000008040422DE9F04106461448016821F02A
:103B300040410160016841F080410160104C002764
:103B4000C4F8B4723D464FF00108F009C4F8BC0255
:103B50007006060E022002F00DFDC4F8B4820220A9
:103B600002F008FDC4F8B472022002F003FD6D1CDF
:103B7000EDB2082DE9D3BDE8F08100000004024059
:103B80000080404270B50D48016821F0404101605D
:103B9000016841F080410160094C0120C4F8BC0279
:103BA000C4F8B402042004F52D7402F0E3FC0025EF
:103BB000A560042002F0DEFC256070BD0004024018
:103BC000008040420E4810B5016821F0404101607C
:103BD000016841F0804101600A4C0020C4F8B40241
:103BE000C4F8BC02042004F52D7402F0C3FC0120CB
:103BF0002060A060BDE81040042002F0BBBC0000C3
:103C0000000402400080404270B512480024016860
:103C100021F040410160016801600F4D0126C5F8A7
:103C2000BC62304602F0A6FCC5F8B462012002F086
:103C3000A1FC07E0641CE4B2FA2C03D9FFF7C2FF31
:103C4000012070BDD5F83C020028F3D1C5F8B402BC
:103C500070BD0000000402400080404270B505467F
:103C6000FFF790FF0F4C20784006000EFFF75AFF39
:103C7000FFF7CAFF2846FFF755FFFFF7C5FFFFF71D
:103C800081FF2078012101EB4000C0B2FFF74AFF1D
:103C9000FFF7BAFF0020FFF711FF0446FFF792FF7E
:103CA000204670BD800000202DE9F04116460D46EB
:103CB0000746FFF767FF134C20784006000EFFF71A
:103CC00031FFFFF7A1FF3846FFF72CFFFFF79CFFFE
:103CD000FFF758FF2078012101EB4000C0B2FFF749
:103CE00021FFFFF791FF002406E00120FFF7E6FE29
:103CF000641C05F8010BE4B2B442F6D3BDE8F04110
:103D0000FFF760BF800000207FB5002415480094B5
:103D1000019402941249039401604FF48031C0E988
:103D200001140461047680F820400F49C0E90A14A8
:103D30000125C561C46080F830404561FDF7F6FE9D
:103D400008B1FDF740FE0A20CDE90005694602945E
:103D50000448FDF745FE002801D0FDF734FE7FBD85
:103D600000200140540A00200100000F104810B547
:103D70000E4901600321416000214FF4002281605F
:103D8000C0E903124FF44012426101764176817618
:103D9000C176017701214177FEF791F9002803D020
:103DA000BDE81040FDF70FBE10BD000000640040EC
:103DB0009C0A0020104810B50E49016003214160A3
:103DC00000214FF400228160C0E903124FF4401239
:103DD0004261017641768176C17601770121417792
:103DE000FEF76DF9002803D0BDE81040FDF7EBBDEC
:103DF00010BD000000680040C40A00201CB500246B
:103E00000C4900940A48019408600846FEF7CAFA73
:103E100008B1FDF7D8FD0220CDE900400022694637
:103E20000448FEF79EFA002801D0FDF7CCFD1CBD2A
:103E300000740040EC0A0020194808B5016841F4FC
:103E400000110160016801F400110091016841F462
:103E5000800101600068002200F4800000900521CC
:103E60000B20FEF7EBFD0B20FEF7DAFD002205210B
:103E70000D20FEF7E3FD0D20FEF7D2FD00221146D6
:103E80001020FEF7DBFD1020FEF7CAFD0022052101
:103E90003A20FEF7D3FDBDE808403A20FEF7C0BD4A
:103EA0003038024010B59CB01C2216496846FCF719
:103EB00018FA0021684603F0F5FC134C11491C2246
:103EC00020601C3107A8FCF70CFA002107A803F0BA
:103ED000E9FC0C4960601C2238310EA8FCF701FA9D
:103EE00000210EA803F0DEFC0649A0601C2254311C
:103EF00015A8FCF7F6F9002115A803F0D3FCE06043
:103F00001CB010BDF4C80008980400202DE9F04F43
:103F100087B014216846FCF7FDF943480024016886
:103F200041F004010160016801F00401059101689C
:103F300041F080010160016801F080010591016894
:103F400041F001010160016801F001010591016882
:103F500041F010010160016801F010010591016854
:103F600041F002010160016801F002010591016860
:103F700041F0080101600068DFF8B09000F008002F
:103F80004FF4D8450590012229464846FEF7B3FC78
:103F9000002208214846FEF7AEFCDFF894A000227C
:103FA00024215046FEF7A7FCDFF888B04FF42047E5
:103FB000012239465846FEF79EFC4FF40078012254
:103FC00041461D48FEF797FC00950125CDE90154B7
:103FD000694648460394FEF7ABFB08200326CDE96B
:103FE0000005CDE9024669464846FEF7A1FB2420BC
:103FF000CDE90005CDE9024669465046FEF798FB3B
:1040000000970396CDE9015469465846FEF790FBA8
:10401000CDF80080CDE90154694607480394FEF7C6
:1040200087FB07B0BDE8F08F30380240000802403F
:104030000000024000040240000C024010B596B09F
:1040400000240F9410941194129413941C2108A826
:104050001494FCF75FF920216846FCF75BF92948C6
:104060002749016040F61F51C0E9011440F2E731D1
:10407000C0E9031444618461FFF740F808B1FDF71B
:10408000A2FC4FF480500F900FA91E48FFF785F84F
:1040900008B1FDF798FC1B48FFF749FA08B1FDF796
:1040A00092FC139413A917481494FEF7DFFF08B18C
:1040B000FDF789FC6020CDE908040A940B940C9468
:1040C0000D94042208A90F480E94FFF7C8F908B10F
:1040D000FDF779FC00944FF40050CDE904400294C0
:1040E00001940394694607480794FEF795FF08B1C9
:1040F000FDF769FC0348FFF76FF916B010BD00002B
:1041000000000140000B002010B58EB00024079481
:10411000089409940A940B941C2168460C94FCF7AB
:10412000F9F82248204901605321C0E9011440F602
:10413000C311C0E903148461FEF7E0FF08B1FDF785
:1041400042FC4FF48050079007A91848FFF725F864
:1041500008B1FDF738FC1548FFF7E9F908B1FDF79C
:1041600032FC0B940BA911480C94FEF77FFF08B1A9
:10417000FDF729FC6020CDE9000402940022694685
:104180000A480494FFF76BF908B1FDF71CFC042200
:1041900069460648FFF763F908B1FDF714FC0348C8
:1041A000FFF71AF90EB010BD00040040400B0020CC
:1041B0000C4810B50A4901604FF4E131416000211B
:1041C00081600C22C160C0E904128161C161FFF706
:1041D00081FA002803D0BDE81040FDF7F4BB10BD04
:1041E000004C0040800B00200C4810B50A490160CB
:1041F0004FF4E1314160002181600C22C160C0E9CF
:1042000004128161C161FFF765FA002803D0BDE89F
:104210001040FDF7D8BB10BD00500040C00B00207F
:104220000C4810B50A4901604FF4E13141600021AA
:1042300081600C22C160C0E904128161C161FFF795
:1042400049FA002803D0BDE81040FDF7BCBB10BD03
:1042500000100140000C00200C4810B50A49016014
:104260000B494160002181600C22C160C0E9041249
:104270008161C161FFF72EFA002803D0BDE810402C
:10428000FDF7A1BB10BD000000440040400C002021
:10429000A0860100FEE7704710B500210948FFF72E
:1042A00063F904210748FFF75FF900210846FDF78D
:1042B0008BFB04210448FFF757F904490020886369
:1042C00010BD0000400B0020000B0020000001404A
:1042D00002680021118002685180026891800268A2
:1042E000D180036803221A7203685A7202685181EE
:1042F000026891810268D181026811740268517468
:10430000026851820068818270470079C01C800772
:10431000400F70474068A0F20120042802D24FF4F9
:104320000070704740F2FF10704770B58EB00646BF
:10433000002502468DF800500121684601F0E6FA9A
:1043400001F0F8F932460121042001F09FFD0446F6
:1043500001F0F0F984B90C208DF8020002208DF8EC
:10436000030001208DF805508DF804000146324607
:10437000684601F095FE04460EB0204670BD70B54B
:104380008EB00124064602468DF80040214668465C
:1043900001F0BCFA01F0CEF932460221042001F00E
:1043A00075FD054601F0C6F995B90C208DF802009F
:1043B00000208DF8060002208DF803008DF80740DC
:1043C0008DF8044032460121684601F069FE054639
:1043D0000EB0284670BD0000064C20698047064D8F
:1043E000687828B1606A8047022003F04FFAF7E747
:1043F000E069F8E750040020780400201E4C4FF4D8
:10440000FA781A4D1A4E1B4F04F11C0B04F1380AAE
:1044100004F1540905F082FEF1681548884705F05B
:104420009DFE2888401C80B22880404506D9002087
:1044300028804FF400511148FEF756FA79690D486B
:10444000884771690A48884761690B488847216B2A
:1044500058468847E16C50468847A16E48468847D1
:1044600002F0ACF8012003F011FAD3E77C0400203D
:10447000DC0000209C000020D80100200008024041
:104480000B4D4FF0FF3421462346094A002006F029
:1044900063F90128F7D12878C00702D00548FCF756
:1044A00065FE28788007EED50348FCF75FFEEAE753
:1044B0008804002028050020440500200125144E12
:1044C0000027144C05F02AFE307E012801D028B1C7
:1044D00015E065700E48FFF7FBFE10E0707E40B1FE
:1044E000C0B2032811D00320607085F3138800F058
:1044F000EFFB6078012802D127706770A77005F084
:104500002DFE022003F0C2F9DCE70220ECE70000F8
:104510009C0000207804002010B5502080F3118802
:10452000BFF34F8FBFF36F8F06F0B2F818B1044995
:104530004FF080500860002080F3118810BD00000B
:1045400004ED00E030B593B030216846FBF7E2FEA1
:1045500014210CA8FBF7DEFE1A480025016841F083
:1045600080510160006800F0805011901648016889
:1045700041F4804101600068022400F48040119001
:1045800001200090000401908001CDE9064019202F
:1045900008904FF4A870CDE9090404200B906846F8
:1045A000FEF78AFB0CA90F2081E831004FF4A050E0
:1045B0000F90E002109005210CA8FEF771FA13B0DD
:1045C00030BD0000403802400070004005480168DE
:1045D00041F47001016003494FF0006080390860C8
:1045E0007047000088ED00E00148FEF742BE000081
:1045F000000E0020F0B50268254C264D264E274FB0
:10460000274B4FF0804CA04209D0604507D0A8420C
:1046100005D0B04203D0B84201D0984204D122F074
:10462000700E4A6842EA0E02A0421BD0604519D0C3
:10463000A84217D0B04215D0B84213D0984211D03A
:10464000184DA8420ED0184DA8420BD0174DA842C5
:1046500008D0174DA84205D0164DA84202D0164DDD
:10466000A84203D122F44075CA682A434D6922F05A
:1046700080022A4302608A68C2620A688262A0429B
:1046800001D0984201D10969016301214161F0BD66
:10469000000001400004004000080040000C004001
:1046A0000004014000400140004401400048014036
:1046B00000180040001C00400020004010B501F030
:1046C0001F030121046A99408C430462016A9A40E5
:1046D0001143016210BD10B5846842EA032224F43C
:1046E0007F440A432243826010BD826822F0700238
:1046F0000A4342F00701816070470000F0B5026A8A
:1047000022F001020262036A42688469124E24F0B8
:1047100073050C682C4323F002058B682B430D4D69
:10472000A84201D0B04205D123F00807CB683B4333
:1047300023F00403A84201D0B04205D14D6922F410
:10474000407215438A692A43426084614968416323
:104750000362F0BD0000014000040140F0B5026AB0
:1047600022F010020262026A436884690D6824F430
:10477000E64444EA05248D6822F0200242EA05124C
:104780000F4D104EA84201D0B04206D1CF6822F0A2
:10479000800242EA071222F04002A84201D0B04251
:1047A00007D14D6923F4406343EA85038D6943EAE9
:1047B000850343608461496881630262F0BD000043
:1047C0000000014000040140F0B5026A22F480724A
:1047D0000262026A4368C46922F4007224F073051D
:1047E0000C68124E2C438D6842EA05220E4DA842F9
:1047F00001D0B04206D1CF6822F4006242EA07221B
:1048000022F48062A84201D0B04207D14D6923F45E
:10481000405343EA05138D6943EA05134360C461BD
:104820004968C1630262F0BD00000140000401401C
:1048300030B5026A22F480520262046A4268C36997
:104840000D6823F4E64343EA05238D6824F40054FD
:1048500044EA0534084DA84202D0084DA84204D1CC
:104860004D6922F4804242EA85124260C361496880
:104870000164046230BD00000000014000040140FA
:1048800010B5036A046A24F001040462846924F008
:10489000F00444EA021423F00A020A43846102622B
:1048A00010BD10B5036A23F0100303628369046A24
:1048B00023F4704343EA023224F0A00343EA0111D7
:1048C0008261016210BD000010B50448FDF770F868
:1048D000BDE810400148FEF773BE0000800B0020C9
:1048E00010B50448FDF764F8BDE810400148FEF734
:1048F00067BE0000C00B002010B5806B0021C18591
:10490000C184FEF75BFE10BD0168CA6822F4907294
:10491000CA6001684A6922F001024A61202180F8D8
:104920003A10704710B590F83A10222901D00220B1
:1049300010BD8168B1F5805F11D00169002901685F
:104940001FD0496801F07F03816A4A1C82620B70A4
:10495000C18D491E0904090CC18518D02BE00269DC
:10496000816A002A0268526805D0D2B20A80816A40
:10497000491C8162ECE7C2F308020A80816A891C43
:10498000F7E74A68816A4B1C83620A70E0E70168B6
:10499000CA6822F02002CA600168CA6822F48072E4
:1049A000CA6001684A6922F001024A61202180F848
:1049B0003A10FFF73FF8002010BD00002DE9F0414C
:1049C000044600680169E26821F440511143016125
:1049D0002169A068E26908436169114308432168BD
:1049E000CA6849F20C639A430243CA60206841696D
:1049F000A26921F4407111434161E06919276425DE
:104A00003226B0F5004F354A354920684FF000088E
:104A100006D0884201D0904236D1FEF70BF935E03E
:104A2000884201D0904202D1FEF704F901E0FEF77E
:104A3000F1F861684A18A0FB070148EB0803FBF78F
:104A40001FFC0146B0FBF5F00201B1FBF5F06FF081
:104A50001803584301EB800006EBC000B0FBF5F0F3
:104A600000F0F80002EB4002B1FBF5F0584301EB17
:104A7000800006EBC000B0FBF5F000F007002168F5
:104A800010448860BDE8F081FEF7C4F861688B0FC0
:104A90008A00A0FB0701FBF7F3FB0146B0FBF5F032
:104AA0006FF01802504301EB800006EB0010B0FBE2
:104AB000F5F000F0F002B1FBF5F002EB0012B1FBF3
:104AC000F5F06FF01803584301EB800006EB00107F
:104AD000B0FBF5F000F00F00D1E70000001401403A
:104AE0000010014090F83910212901D002207047B0
:104AF0008168B1F5805F016A0BD04A1C02620268CE
:104B000009785160C18C491E0904090CC1840ED07A
:104B100017E009880268C1F30801516001690029A2
:104B2000016A02D0491C0162ECE7891CFBE70168BD
:104B3000CA6822F08002CA600068C16841F0400182
:104B4000C16000207047000010B50448FCF730FF3A
:104B5000BDE810400148FEF733BD0000000C002006
:104B60000B4882B001680A684A680092CA6842F03D
:104B70001002CA6001684A6942F040024A61016855
:104B8000406B6423034A091D02B0FCF7CBBE000052
:104B9000000C0020A805002010B50448FCF708FF11
:104BA000BDE810400148FEF70BBD0000400C00209E
:104BB0000C4808B501680A684A680092CA6842F061
:104BC0001002CA6001684A6942F040024A6112213B
:104BD00000910168044B406BA3F11802091DFCF71A
:104BE00041FD08BD400C00202406002010B5054CF6
:104BF00001462046E268904720462169BDE8104002
:104C0000084700009C0000200B4882B001680A6839
:104C10004A680092CA6842F01002CA6001684A6994
:104C200042F040024A610168406B6423034A091D57
:104C300002B0FCF777BE0000800B00203C0600208D
:104C4000704700000B4882B001680A684A68009209
:104C5000CA6842F01002CA6001684A6942F0400224
:104C60004A610168406BC823034A091D02B0FCF782
:104C700059BE0000C00B0020A00600207047FEE7D0
:104C800003B401984100009850EAC12018BF0420E5
:104C90004A0D18BF40F0010040F2FF72B2EB515FC5
:104CA00008BF40F00200012808BF052002B070478D
:104CB0000907090E002804DB00F1E02080F8001449
:104CC000704700F00F0000F1E02080F8141D7047DD
:104CD000BFF34F8F05480168054A01F4E0611143B5
:104CE0000160BFF34F8F00BFFDE700000CED00E057
:104CF0000400FA050000000070B5C1482DED020B5C
:104D00002DED0E8B82B0119D25F000449FEDBEDB92
:104D10009FEDBFEB84423EDBA4F140511098A1F11E
:104D20007F6108430FD0BC48844202DC28D1109830
:104D300030B39DED100B02B0BDEC0E8B02B0BDE8A0
:104D4000704000F069BC9DED100B53EC1D2B51EC35
:104D5000100BFBF7EAFA9DED100B41EC180B53EC2E
:104D60001E2B51EC100BFBF7E0FA53EC182BFBF762
:104D700030FC41EC100B02B0BDEC0E8B02B070BDEC
:104D8000012000F08DFC02B0BDEC0E8B02B0BDE83E
:104D9000704000F055BCA1489FEDA18B844256DACB
:104DA0009DED100BB4F1795F0ADA51EC100BFFF7AF
:104DB00067FF042808BF00F053FC9DED100BDAE7F5
:104DC00053EC102B51EC100BFBF7AFFA41EC190B25
:104DD00095480621B0EE490AF0EE690A784400F0E1
:104DE0009FFB53EC192B51EC100BFBF79EFA41EC97
:104DF0001A0B8E48B0EE490AF0EE690A0421784495
:104E000000F08EFB53EC192B51EC100BFBF78DFAD5
:104E100053EC182BFBF7DDFB41EC100B51EC1A0B9C
:104E200053EC102BFBF77CFCCDE900019DED000B52
:104E300053EC102B9DED100B51EC100BFBF775FA9A
:104E40009DED101B53EC112BFBF7C3FBD2E09DED46
:104E5000100B51EC100B01F0F8FB53EC182BFBF787
:104E60005CFC9FED730BCDE9000153EC102B9DED25
:104E7000000B51EC100BFBF758FA41EC190B6E4884
:104E80000621B0EE490AF0EE690A784400F048FBCA
:104E900053EC192B51EC100BFBF747FA41EC1B0BB1
:104EA0006648B0EE490AF0EE690A0421784400F041
:104EB00037FB53EC192B51EC100BFBF736FA53EC84
:104EC000182BFBF786FB41EC1C0B51EC190B04F083
:104ED000E0FF41EC180B5A489FED5BABA04222DC8F
:104EE00053EC1C2B51EC1B0BFBF71AFCCDE900011A
:104EF0009DED000B51EC180B53EC102BFBF715FA42
:104F000053EC182BFBF765FB53EC1A2BFBF70DFA50
:104F100053EC1D2BFBF7FEFB53EC1E2BFBF7FDFBAD
:104F200041EC100B5FE08DED008B002000909DEDBB
:104F3000000B51EC180B53EC102BFBF74AFB9DEDCB
:104F4000000B41EC1E0B53EC102B51EC100BFBF73C
:104F5000ECF953EC192BFBF7E0FB53EC1E2BFBF7A2
:104F6000DFFB41EC190B53EC1C2B51EC1B0BFBF73B
:104F7000D7FB41EC1B0B53EC1A2B51EC190BFBF735
:104F8000D4F953EC1D2BFBF7C8FB41EC190B53EC88
:104F90001A2B51EC180BFBF7C8F953EC1B2BFBF742
:104FA000C4F953EC192BFBF7B5FB9DED000B41EC5D
:104FB000180B53EC1A2B51EC100BFBF7B6F99FEDC5
:104FC000249B53EC192BFBF7A8FB41EC100B51EC85
:104FD000180B53EC102BFBF79DFB53EC192BFBF735
:104FE0009CFB41EC100B002D3FF7C5AE51EC100BB4
:104FF00081F0004141EC100BBDE600000000000014
:105000000000F03F00000000075C143326A6913C2E
:10501000182D4454FB21F93F0000F07F0000E03FD1
:10502000000000000000F03FA87B0000B67B0000FD
:10503000000000000000E03FFA7A0000087B00005A
:105040003333EF3F0000000000000000000000408C
:10505000182D4454FB21E93F70B59B482DED020B00
:105060002DED068B079D25F00044A04218DC9748E3
:10507000844202DC0AD1069840B19DED060BBDECDE
:10508000068B02B0BDE8704000F0C6BA002DCCBF60
:105090009FED8F0B9FED900BBDEC068B02B070BDAA
:1050A0008F48A04215DD8F48A042D8BF4FF0FF3493
:1050B00058DD9DED060B51EC100BFFF7E1FD0428C8
:1050C00008BF00F0CDFA9DED060BBDEC068B02B0DB
:1050D00070BD9DED060B51EC100B01F0B6FACDE959
:1050E000060181489FED828BA0423CDD8248A042B0
:1050F0001FDD00249FED82AB9DED060B53EC1A2BB8
:1051000051EC100BFBF765FA9DED060B41EC190B0A
:1051100053EC1A2B51EC100BFBF707F953EC182B3F
:10512000FBF7F8FA53EC192BFBF7FAFACDE9060175
:1051300049E09DED060B012453EC182B51EC100BAC
:10514000FBF747FA9DED060B41EC190B53EC182BBE
:1051500051EC100BFBF7DEFA53EC192BFBF7E0FADE
:10516000CDE906012FE06848A0421FDD02249FED33
:10517000689B9DED060B53EC192B51EC100BFBF7C4
:10518000D4F853EC182BFBF724FA9DED060B41ECF9
:10519000180B53EC192B51EC100BFBF7BBFA53EC2B
:1051A000182BFBF7BDFACDE906010CE09DED060BCF
:1051B000032453EC102B9FED580B51EC100BFBF715
:1051C000AFFACDE906019DED060B53EC102B51EC27
:1051D000100BFBF7AAF841EC180B53EC182BFBF75C
:1051E000A4F841EC190B4E480621B0EE490AF0EE46
:1051F000690A784400F094F953EC182B51EC100B29
:10520000FBF793F841EC180B4648B0EE490AF0EE74
:10521000690A0521784400F083F953EC192B51EC0D
:10522000100BFBF782F841EC100B51EC180B53EC10
:10523000102B002C0EDAFBF7CCF99DED061B53EC7E
:10524000112BFBF772F89DED061B53EC112BFBF7AE
:1052500064FA35E0FBF7BDF99DED061B53EC112B0D
:10526000FBF763F841EC100B2F48784400EBC400C7
:1052700090ED001B51EC100B53EC112BFBF74AFA8D
:105280009DED061B53EC112BFBF744FA41EC100B80
:105290002648784400EBC40090ED001B51EC100B45
:1052A00053EC112BFBF739FA41EC100B002DA2BF88
:1052B000BDEC068B02B070BD51EC100B81F00041CB
:1052C00041EC100B01E70000000010440000F07FEB
:1052D000182D4454FB21F93F182D4454FB21F9BFEC
:1052E0000000DC3F0000203E0000F33F0000000013
:1052F000000000000000F03F0000E63F000000005A
:10530000000000000000004000800340000000009A
:10531000000000000000F83F000000000000F0BFA7
:105320004A780000007800008A7700004277000089
:1053300070B56B4E2DED040B2DED028B82B0DDF8B8
:105340001CC0DDE905235C422CF000411C4341EA0E
:10535000D474049D22F00040B44205D86C422C4322
:1053600040EAD474B4420BD99DED061B9DED040BAD
:1053700002B0BDEC028B04B0BDE8704000F056B93D
:10538000ACF14054A4F17F641C430BD0022404EA26
:10539000AC7444EAD27405439FED538B9FED542BBC
:1053A00007D015E09DED040B51EC100B00F07EF9D9
:1053B00042E0002C11BF012C9DED040B02B0BDECAE
:1053C000028B04BF04B070BD022C38D0032C3BD03C
:1053D0000B439FED491B9FED4A0B0AD0B14218D1F8
:1053E000B04209D121F0804120F080400791059022
:1053F0000FE0002A15DA10E0434B7B44002C08BF75
:1054000093ED000B0DD0012C10D0022C17D0032CE3
:105410001AD0B0421DD1002A03DAB0EE410AF0EEF4
:10542000610A02B0BDEC028B04B070BD93ED000BBD
:1054300051EC100B81F0004141EC100BF1E7B0EEA4
:10544000480AF0EE680AECE7B0EE420AF0EE620AB3
:10545000E7E7401A00153C28C8BF8DED000B19DCAA
:10546000BCF1000FBEBF10F13C0F9FED290B8DED7D
:10547000000B0FDB9DED060B53EC102B9DED040B89
:1054800051EC100BFBF74CF901F0DFF800F00EF9CE
:10549000CDE90001002C08BF9DED000BC1D0012C0F
:1054A00010D0022C9FED1C0B53EC102B9DED000B2C
:1054B00051EC100B0DD0FBF72DF953EC182BFBF72B
:1054C00029F9B9E7019880F0004001909DED000BAB
:1054D000A7E7FBF71FF953EC182BFBF71EF9ABE717
:1054E0000000F07F00000000182D4454FB2109400B
:1054F000182D4454FB2109C0182D4454FB21F9BF39
:10550000182D4454FB21F93F727600000000000082
:105510000000000000000000075C143326A6A13C38
:1055200070B504462DED028B4D1E00EBC500B0EEAC
:10553000408AF0EE608A90ED000B35F0060017D03F
:1055400053EC182B51EC100BFAF7EFFE41EC100B5B
:105550006D1E04EBC50090ED001B51EC100B53ECDD
:10556000112BFBF736F841EC100B35F00600E7D1B4
:10557000022D36D0042D1CD0062D1CBFBDEC028B95
:1055800070BD53EC182B51EC100BFAF7CEFE94EDD6
:105590000A1B53EC112BFBF71CF853EC182BFAF7F2
:1055A000C4FE94ED081B53EC112BFBF712F841ECF1
:1055B000100B53EC182B51EC100BFAF7B6FE94EDD0
:1055C000061B53EC112BFBF704F853EC182BFAF7DE
:1055D000ACFE94ED040B53EC102BFAF7FAFF41EC00
:1055E000100B53EC182B51EC100BFAF79EFE94EDB8
:1055F000021B53EC112BFAF7ECFF53EC182BFAF7C4
:1056000094FE94ED001B53EC112BFAF7E2FFBDEC76
:10561000028B41EC100B70BD10B553EC102B51EC0C
:10562000100BFAF7D6FF41EC100B10BD10B553EC80
:10563000112B51EC100BFAF7CCFF41EC100B10BD05
:105640009FED050B10B553EC102B51EC100BFBF735
:1056500067F841EC100B10BD0000000000000000D6
:105660009FED050B10B553EC102B51EC100BFAF716
:105670005CFE41EC100B10BD0000000000000010AB
:1056800002E008C8121F08C1002AFAD1704770470B
:10569000002001E001C1121F002AFBD17047000069
:1056A00001490860704700002405002010B541EC56
:1056B000100BFFF7D1FC51EC100B10BD10B504001E
:1056C0004FF0FF3030D0A16C00292DD0E16C0029C3
:1056D0002AD0216D002927D0242020704FF40050BB
:1056E000A4F85A000320A4F85800607A20B10020E2
:1056F000E072206910B103E00120F9E70B48206156
:10570000204600F0FFFB00280ED10948E061303050
:10571000206208202075102060750720A0752046A3
:10572000BDE8104000F072B810BD0000AEA800083F
:10573000AEC800087047F0B5044600231846557DF2
:1057400011E0D66903EB4307F65D8E4209D1D069BB
:1057500003EB43010844018821808078A070012078
:10576000F0BD5B1CDBB29D42EBD8F0BD2DE9F743E9
:105770004FF0000514465FEA01094FF010064FF0A4
:1057800030082F4626D02CB3207D9DF8001088428B
:1057900039D91346012269462F2000F033FC002836
:1057A0001AD1E089102827D2C10701D0401EE0811C
:1057B000E28909EB0701B24223460FD8404600F0C8
:1057C0005BF8A17BCA19D7B201EB080202F0FF080F
:1057D000294408E04FF0FF30BDE8FE8332464046E2
:1057E00000F04AF8A919CDB2C5F11001CEB20028D7
:1057F000F2D1002EDCD1EFE72346102249463020BB
:1058000000F03AF8E8E76FF00900E5E71FB5044655
:10581000002094F85810890705D5204602F02AF890
:1058200018B14FF0FF3004B010BD28208DF80000F3
:1058300022460121684600F086F90028F3D1BDF820
:105840000410A4F85410EEE770B505460C4608465F
:1058500002F010F868B965B1226D44F62060616805
:10586000904723462946BDE870400122212000F0E0
:1058700003B84FF0FF3070BD2DE9F05F8246174648
:105880008B461C460025184601F0F4FF060037D170
:10589000BBF1000F34D0E07A384480B2804601F08A
:1058A0009FFF8146607A08B94AF0800A94F8570051
:1058B000D4F848C0012863684246494650460DD096
:1058C000E047A072226D142061689047A07AA0B1D1
:1058D0006FF00106484600F0C5FE13E0E047A072F5
:1058E0004FF4E170226D6168EFE7E17A09EB0500A2
:1058F000095C0BF805106D1CADB2BD42F5D3E9E7AC
:105900004FF0FF363046BDE8F09F00002DE9F0472C
:10591000044686B088469246104601F0ABFF002848
:1059200075D1002C73D09AF8577000266FF00709D4
:10593000F6E000BF06EB860000EBC60514F8250074
:10594000042801D2022807D1012F05D15146002099
:1059500000F026FB002870D114F825001D286DD218
:10596000DFE800F00F161D242B32404040474E5612
:105970005D646D747B82899097A59EACD2646464EB
:10598000390004EB85005146801C00F0A3FEC1E005
:1059900004EB85005146801C01F06DF8BAE004EB81
:1059A00085005146801C00F035FFB3E004EB850014
:1059B0005146801C01F026FBACE004EB850051460B
:1059C000801C00F0E2FEA5E004EB85005146801C3F
:1059D00001F0CDF99EE004EB85005146801C01F0FA
:1059E000B5FB97E004EB85005146801C01F069FB94
:1059F00090E004EB85005146801C01F0A4F889E09A
:105A000004EB85005146801C01F02CFC82E095E0FF
:105A100004EB85005146801C01F050FC7AE004EB59
:105A200085005146801C00F0FAFF73E004EB85000E
:105A30005146801C01F06EFC6CE081E06CE004EBF0
:105A400085005146801C01F06CFA63E004EB850090
:105A50005146801C01F0F0F85CE004EB85005146F3
:105A6000801C01F03BF955E004EB85005146801C99
:105A700000F051FF4EE004EB85005146801C00F021
:105A80001EFF47E004EB85005146801C01F080FCBE
:105A900040E004EB85005146801C01F0F9FC39E040
:105AA00004EB85005146801C01F0ADFC32E004EBB4
:105AB00085005146801C01F032FD2BE0002004EBF4
:105AC00085050090019002900390049052461721A2
:105AD00004A8AD1CFFF72FFEF0B19DF8110052464F
